:020000040800F2
:10000000B80A002061020008690200086B020008BB
:100010006D0200086F020008710200080000000075
:100020000000000000000000000000007302000853
:10003000750200080000000077020008790200083D
:100040007B0200087B0200087B0200087B0200089C
:100050007B0200087B0200087B0200087B0200088C
:100060007B0200087B0200087B0200087B0200087C
:100070007B0200087B0200087B0200087B0200086C
:100080007B0200087B0200087B0200087B0200085C
:100090007B0200087B0200087B0200087B0200084C
:1000A0007B0200087B0200087B0200087B0200083C
:1000B0007B0200087B0200087B0200087B0200082C
:1000C0007B0200087B0200087B0200087B0200081C
:1000D0007B0200087B0200087B0200087B0200080C
:1000E0007B0200087B0200087B02000800F002F897
:1000F00000F0A6F814A696E8000CB244B344DA4522
:1001000001D100F09DF8BAE80F000FA696E8300084
:10011000A5EB040504EB0607AAEB0704A7F101070A
:100120004FEA15154FEA3414A4F10104AC4201D38F
:1001300000F086F813F0010F18BFFB1A43F001031B
:1001400000F001F8DBE71847D4300000F43000007D
:10015000103A24BF78C878C1FAD8520724BF30C8F3
:1001600030C144BF04680C60704700007047000055
:100170000023002400250026103A28BF78C1FBD8B0
:10018000520728BF30C148BF0B6070476E2900F08E
:100190004D82702900F09183662902F03F8765291E
:1001A00002F03C87672902F03987612902F038871D
:1001B00003681B0A28BF41F08001692900F0FA8119
:1001C000642900F0F781752900F0F4816F2900F0AF
:1001D0001F83782900F05D83E92900F0B982E429C2
:1001E00000F0B682F52900F0B382EF2900F01C83FD
:1001F000F82900F05C830368DB0928BF41F0800127
:10020000632901F0B780732901F0BC80E32901F074
:10021000C780F32901F0CC80002070471FB501F0A2
:100220001DF904000020002102F0E2FE401C606085
:100230000020002102F0C6FEE0601FBD10B510BD19
:1002400001F0DEF81146FFF7E9FF02F067FA01F06E
:10025000BBF903B4FFF7F2FF03BC01F0C3F90000E0
:100260000948804709480047FEE7FEE7FEE7FEE74A
:10027000FEE7FEE7FEE7FEE7FEE7FEE70448054986
:10028000054A064B70470000F91F0008ED00000802
:10029000B8040020B80A0020B8060020B8060020E4
:1002A0000FB41CB50C0007AA009007D04142A14230
:1002B00002D32044401E01E04FF0FF30074B7B4447
:1002C00069460190069800F0CAF90021002C01D07F
:1002D000009A11701CBC5DF814FB0000C303000001
:1002E00030B505460B462A4613F8014B12F8010BB0
:1002F00008B1A042F8D01CB1002802D06D1CF1E773
:10030000284630BD10B5431C02E010F8011B71B146
:100310008107FAD14FF0013202C88C1A8C4314EADB
:10032000C211F9D0C01A0A0603D0C01E10BDC01AEF
:1003300010BD0A0401D0801E10BD0902FCD0401E71
:1003400010BD032A40F2308010F0030C00F015803D
:1003500011F8013BBCF1020F624498BF11F801CBC8
:1003600000F8013B38BF11F8013BA2F1040298BF2D
:1003700000F801CB38BF00F8013B11F0030300F097
:100380006B83083AC0F0088051F8043B083A51F8F2
:1003900004CBA0E80810F5E7121D5CBF51F8043B40
:1003A00040F8043BAFF30080D20724BF11F8013BB3
:1003B00011F801CB48BF11F8012B24BF00F8013B15
:1003C00000F801CB48BF00F8012B70474FF0000246
:1003D0000429C0F0128010F0030C00F07183CCF1FE
:1003E000040CBCF1020F18BF00F8012BA8BF20F8C5
:1003F000022BA1EB0C0100F063BB5FEAC17C24BFC0
:1004000000F8012B00F8012B48BF00F8012B7047C2
:1004100010B5044610F0030F08BF11F0030F40F0B1
:1004200015804FF0013E121FC0F20E8051F8043BC0
:10043000A3EB0E0C2CEA030C1CEACE1C08BF40F800
:10044000043BF0D0A1F1040102F10402521E08DBCA
:1004500011F8013B00F8013B002BF7D11146FFF7E3
:10046000B5FF204610BD00004FF0013C50F8042BB2
:1004700051F8043B9A4221D1A2EB0C03934313EAB7
:10048000CC1317D150F8042B51F8043B9A4215D1E4
:10049000A2EB0C03934313EACC130BD150F8042BBB
:1004A00051F8043B9A4209D1A2EB0C03934313EA9F
:1004B000CC13DBD04FF00000704700BFD01A01BA58
:1004C000B1FA81F101F0180122FA01F0CB40DBB260
:1004D000C0B2C01AC1F120012CFA01F3D11A914324
:1004E00011EAC311E6D1704770477047704770B585
:1004F000044685690068C10601D5302600E0202643
:10050000C00707D070BDD4E9012130469047206A6A
:10051000401C20626D1EF6D570BD70B5044685691D
:100520000078C00707D170BDD4E901212020904791
:10053000206A401C20626D1EF6D570BD09684A0510
:1005400001D540B27047C905FCD500B270470968B3
:100550004A0501D5C0B27047C905FCD580B27047C5
:1005600070B50C460546012A05D02878800600D5CE
:10057000EA69002302E0012305E05B1C934202D2FA
:10058000E05C0028F9D1A869E618C01AA861286AB9
:10059000184428622846FFF7AAFF04E0D5E90121A4
:1005A00014F8010B9047B442F8D32846FFF7B5FF83
:1005B00070BD00002DE9F041064600241068752941
:1005C000314616A510D0FFF7B9FF002802DA4042E5
:1005D00013A507E031688A0701D512A502E0490793
:1005E00004D511A5012401E0FFF7B1FF00210A2283
:1005F00006F1240709E0B0FBF2FCB0FBF2F302FBCA
:100600001C00303078541846491C0028F3D123468A
:100610002A463046BDE8F04100F0BCBA00000000B8
:100620002D0000002B00000020000000116802686F
:10063000006A530501D508700AE0D30501D508808A
:1006400006E0130603D5C217C1E9000200E0086006
:100650000120704701694A1C02610878704700B5A3
:100660008FB0CDE901310021059105497944CDE9EB
:1006700003101146684600F02BF90FB000BD0000D2
:10068000E5FFFFFFD1E900239A4202D2531C0B6021
:10069000107070472DE9FF5F15468A460446DFF863
:1006A000AC80F8440027D8E900103E46CDE90010A0
:1006B00010E03AF816106A4602A800F07DFE411CD0
:1006C00007D02178890603D5E269391891420DD8FF
:1006D0000744761C2078800602D5E069B84205DD23
:1006E000AE42E6DB3AF816000028E2D1A069C01B52
:1006F000A0612046FFF7FBFED8E90010CDE900100D
:10070000002017E03AF818106A4602A800F054FEDC
:10071000B0F1FF3F81460BD000250DF1080B05E03D
:10072000D4E901211BF8050090476D1C4D45F7D316
:1007300008F10100B0428046E4DB206A38442062C0
:100740002046FFF7EAFEBDE8FF9F00007E2900007B
:100750002DE9F0418046D21D22F007020025D2E9A2
:100760000002F52915A614D0011E72F1000106DA67
:100770000023D0EB030063EB020211A608E0D8F8D7
:1007800000108B0701D50FA602E0490701D50EA680
:1007900001251146002408F1240704E000F0B5F912
:1007A00030323A55641C50EA0102F7D12B463246EA
:1007B00021464046BDE8F04100F0ECB900000000E1
:1007C0002D0000002B0000002000000030B40021AC
:1007D00000F1240408E002F00705D208303542EAAF
:1007E0004372DB086554491C52EA0305F3D10468DF
:1007F000002310A2250708D504F020040C4304D0E0
:10080000C46901230CA2641EC46130BC00F0C2B9EB
:1008100010B5044621461068FFF799FE02462046AF
:10082000BDE810400023D1E7D21D22F00701D1E935
:100830000023CBE70000000030000000F0B40D46BC
:100840000188090502D5214C7C4402E01F4C7C4400
:100850000E34002100F1240608E002F00F0712090F
:10086000E75D42EA03721B097754491C52EA030709
:10087000F3D102780023120704D5702D06D009B1F8
:10088000022311342246F0BC00F084B90123103455
:10089000F8E770B504460D4621461068FFF757FE8D
:1008A000024629462046BDE870400023C6E7D21D17
:1008B00022F00703D3E90023C0E70368126843F07E
:1008C000200303600823C3610023B7E7E02700008B
:1008D0002DE9F05F894604464FF0000ADFF874B155
:1008E000FB44C0F820A02046E1688847002874D067
:1008F000252806D0D4E901219047206A401C2062B7
:10090000F1E700265F462046E16888472028054633
:1009100007DB312D05D2781910F8200C08B10643F9
:10092000F1E7B00701D526F00406C4F81CA00027A3
:10093000C4F818A02A2D09D0284602F03BFB38B392
:1009400004EB8708303DC8F8185019E059F8041B2B
:10095000204604EB87029161E1688847012F054634
:1009600018D1E069002820DA26F020061DE0D8F82A
:10097000180000EB800005EB40003038C8F8180084
:100980002046E1688847054602F014FB0028EED1B6
:10099000012F0AD02E2D08D12046E16888477F1C00
:1009A0000546022F46F02006C4DBA069002803DAC2
:1009B000404246F00106A061F00701D026F0100683
:1009C0006C2D0BD0682D09D04C2D39D06A2D35D027
:1009D000742D35D07A2D33D016E038E0E1682F46FB
:1009E00020468847B842054609D16C2F26D04FF4DF
:1009F0008060E168064320468847054604E06C2F86
:100A00001AD04FF4807006430DB3A5F141001928A8
:100A100002D8203546F400664A462946204626601C
:100A20004E46FFF7B3FB80B101280BD0F61D26F030
:100A3000070000F1080956E74020E4E78020D8E7E6
:100A40000020D6E706F104094DE7284652E7206A60
:100A5000BDE8F09F7027000010B5203AC0F00B8071
:100A6000B1E81850A0E81850B1E81850A0E81850A4
:100A7000203ABFF4F5AF5FEA027C24BFB1E818501A
:100A8000A0E8185044BF18C918C0BDE810405FEA7C
:100A9000827C24BF51F8043B40F8043B08BF7047F8
:100AA000D20728BF31F8023B48BF11F8012B28BFFD
:100AB00020F8023B48BF00F8012B70474FF00002BE
:100AC00000B5134694469646203922BFA0E80C5044
:100AD000A0E80C50B1F12001BFF4F7AF090728BF1F
:100AE000A0E80C5048BF0CC05DF804EB890028BF9B
:100AF00040F8042B08BF704748BF20F8022B11F0C4
:100B0000804F18BF00F8012B704730B5B0F10A02D2
:100B100071F100034FEA900E4EEA817EB0EB0E00B9
:100B200061EB91014FEA101E4EEA017E10EB0E00C0
:100B300041EB11114FEA102E4EEA016E10EB0E0040
:100B400041EB11214FEA104E4EEA014E10EB0E0020
:100B500041EB1141401841F100014FEAD00040EA59
:100B600041704FEAD1014FEA810444EA907410EBDE
:100B7000800544EB01046D1944EB0404521BA341AE
:100B80004FF0000348BF0A3200D530BD401C41F190
:100B9000000130BD2DE9F0470D46994692460446C6
:100BA00000F124080168880604D5E06921F01001ED
:100BB000216000E00120A84201DD471B00E0002782
:100BC000A1697A1902EB0900081AA0612078C00611
:100BD00002D42046FFF78BFC002608E0D4E901216F
:100BE0001AF806009047206A401C761C20624E4589
:100BF000F4DB2078C0060AD52046FFF778FC06E033
:100C0000D4E9012130209047206A401C2062381E20
:100C1000A7F10107F4DC07E0D4E9012118F8050089
:100C20009047206A401C2062281EA5F10105F3DCD4
:100C30002046FFF772FC2078000602D50220BDE8AE
:100C4000F0870120FBE72DE9FF4F0C461E464FF0D1
:100C5000FF378BB0D2E90001DDF860800A908A4648
:100C6000C1F30A5505B93D46002108464FF0000082
:100C7000BAF1000F00F4400005DA00EB80004FF4F9
:100C8000400101EA50004FEA9059B9F1010F00DD2F
:100C9000B9460A9850EA4A000ED044F61050A5F220
:100CA000FF3545432F14B8F1000F1ED07542291EA1
:100CB0001EDDC9F100021CE0B8F1010F4FF0000089
:100CC00001D0302103E0F24305E02154401CB04242
:100CD000FBDB30460022002121540B99C1F808802B
:100CE000C1E900200FB0BDE8F08FBD1B6D1CDEE731
:100CF0004A4600DA694206A800F0F4FB06AB93E826
:100D0000070003AB83E8070050460A9901F075FD20
:100D10008DE80700A0F500501F3800900398002DC3
:100D20000ADD42F21F014A460844002303A903904A
:100D3000684601F0DFFF09E0A0F500504A461F3881
:100D4000002303A90390684601F0E9FF8DE807003E
:100D50000004000C03D04FF0FF30410800E01046C3
:100D6000B8F1000F03D00022009215461EE0751E58
:100D700005D4FFF7CAFE303262556D1EF9D5B34671
:100D80000122084302D000227F1C04E02078302892
:100D900001D100227F1E002A099784D01DE0112D69
:100DA00007DAFFF7B2FE303262556D1C50EA0102DD
:100DB000F5D1084302D00098C8B10EE00021681EAA
:100DC00005E0235C625C63542254401E491C81424E
:100DD000F7DBAB46A81B401E0990002004F80B006F
:100DE0000B98099AC0F80880C0E9002B7AE7112611
:100DF0004FF0000857E72DE9F04F88460446D21D12
:100E000022F0070191B0D1E90001CDE90A0102F019
:100E1000BDF802460B98C00F01D02D2007E02068D6
:100E2000810701D52B2002E0202101EAC000032A1E
:100E3000099001D0072A05DB03464146204600F011
:100E400011FB0BE12078800601D5E06900E0062067
:100E5000B8F1650F814606D0B8F1660F18D0B8F129
:100E6000670F70D131E00020B9F1110F009001DB64
:100E7000112301E009F101030AAA01A90CA8FFF757
:100E8000E2FEDDE90C70002609F10105834647E02A
:100E900001204B4600904FF000470AAA01A90CA878
:100EA000FFF7D1FEDDE90DB00C995D46002610B9C3
:100EB00009F101000D18B9EB050003D4C0F1FF36AC
:100EC00009F10105A5EB09002BE0B9F1010F01DAE9
:100ED0004FF001090020B9F1110F0090484601DDE3
:100EE000112300E003460AAA01A90CA8FFF7ABFEF4
:100EF000DDE90C704D4600268346207800070AD4B1
:100F0000AB4500DA5D4601A8012D04DD411911F859
:100F1000011C302907D04F4502DA17F1040F04DA1B
:100F2000012082460FE06D1EEEE7002F02DCED1B74
:100F30003E4403E0781CA84200DD7D1CB81B00F194
:100F4000010A4FF000472078000703D4AA4501DBCF
:100F50004FF0FF3A0021B7F1004F0DF143088DF833
:100F6000431024D002202B23002F01DA7F422D23AF
:100F70000A21021EA0F1010000DC5FB197FBF1FC29
:100F800097FBF1F201FB1C7C17460CF1300C08F8C2
:100F900001CDEEE7A8F1010003702188090501D514
:100FA000452100E06521A0F1010800F8011C099825
:100FB0000FA9A1EB0807FF1D00B10120411901EBAA
:100FC000EA70A1693844081A401EA0612078C00662
:100FD00002D42046FFF78BFA099828B1D4E9012101
:100FE0009047206A401C20622078C00622D5204607
:100FF000FFF77DFA1EE0002E04DBB34502DD01A8F9
:10100000805D00E03020D4E901219047206A401C37
:101010002062761CAAF101005FEA000A0AD100F002
:101020001DFAC0680168405CD4E901219047206A3C
:10103000401C2062281EA5F10105DCDC07E0D4E994
:10104000012118F8010B9047206A401C2062381ECD
:10105000A7F10107F3DC2046FFF75FFA032011B088
:1010600041E600002DE9F04F04460D46D21D22F066
:10107000070089B0D0E900974846394601F086FF5D
:101080000246F80F01D02D2307E02068810701D523
:101090002B2302E0202101EAC0038DF820300BB1A0
:1010A000012000E00020032A824601D0072A04DB49
:1010B0002946204600F0D6F93FE12078800601D489
:1010C0000D2500E0E569C7F30A560D2D49DA002128
:1010D0004FEA175B08464FF00000002F00F4400075
:1010E00007DA00EB80004FF4400100EBD07001EA1A
:1010F00060008115012901DD4FF0FF3100224FEA28
:10110000850CBCF1180F06D31346ACF118004FF054
:101110008052C24003E04FF4801323FA0CF30CF129
:101120000C0CBCF1200F04D3ACF1200C09FA0CF02C
:1011300001E007FA0CF000294FF0004801DD18B972
:101140000FE00ED140450CD319EB02095F4121B9E4
:10115000404502D19F4329EA0209BBEB175F00D04B
:10116000761C2088000502D57B48784402E07A4846
:101170007844193808AA302302F80A30037C0AF1AF
:101180000101002E0AF1020A53546A4602DC4FF0B4
:10119000300101E04FF031014FF001088DF80010EF
:1011A00002D0A6F2FF3603E059EA470100D06B4EA9
:1011B000002D02DC2178090704D54FF002082E210A
:1011C0008DF80110C44600210BE0C7F303433F0133
:1011D000C35C491C6D1E02F80830052908F101089E
:1011E00001DA002DF1DC00210CE000EB1973491C41
:1011F0001B786D1E082902F808304FEA091908F11A
:10120000010801DA002DF0DC21688B0602D516E01A
:10121000A8F10108E04505DD02EB080313F8013CE5
:10122000302BF5D0B8F1000F09DD02EB080313F8FD
:10123000013C2E2B03D1090701D4A8F10108002D90
:1012400005DD3E2102F808106D1E08F10108407C02
:10125000002E02F8080008F1010804DA2D20764279
:1012600002F8080002E02B2002F808000A214FF4DF
:101270007A70864208F101080BDB96FBF0F33033FD
:1012800002F8083096FBF0F308F1010800FB136642
:1012900001E0642E0CDB642096FBF0F3303302F89F
:1012A000083096FBF0F308F1010800FB136601E03B
:1012B0000A2E06DB96FBF1F0303002F8080008F148
:1012C000010896FBF1F001FB1060303002F80800D5
:1012D000A16908F1010808EB050202EB0A00081AEF
:1012E000A0612078C00602D42046FFF700F9216AE9
:1012F00008AE01EB0A00206204E0D4E9012116F8EF
:10130000010B9047BAF1010AF7D22078C00602D546
:101310002046FFF7ECF86E4609E016F8010B3E2870
:101320000FD0D4E901219047206A401C2062B8F117
:101330000108F2D22046FFF7F0F809B00320BDE81B
:10134000F08F206A2844206203E0D4E90121302094
:1013500090476D1EEBD3F8E70A1F000002FCFFFF69
:1013600010B5436913B1AFF3008001E0FFF7F8F85F
:10137000012010BD127800F124010A7000224A7089
:101380000122EDE711684FF0FF32E9E710B543693C
:1013900013B1AFF3008001E0FFF77CF9012010BD2D
:1013A000128800F1240182840022C2840122EDE728
:1013B00011684FF0FF32E9E72DE9F04116460C467F
:1013C000054600F043F8036893F80101012807D0AF
:1013D000FF2C12D8185D80B101202C70BDE8F0817F
:1013E000D3F807013246214603F20713C7182846EF
:1013F000BC46BDE8F041002360474FF0FF30EDE709
:10140000754600F0EBF8AE4605006946534620F0FD
:101410000700854618B020B5FEF730FFBDE8204034
:101420004FF000064FF000074FF000084FF0000BA0
:10143000AC46ACE8C009ACE8C009ACE8C009ACE80F
:10144000C00921F007018D467047000010B500F07B
:1014500005F8001D10BD00BF991B00000048704733
:10146000480000202DE9F0411F460446032601688C
:10147000072A01F4006004DB08B116A505E016A5F3
:1014800003E008B115A500E015A521F010002060CB
:10149000A069C01EA0610FB1401EA0612046FFF7E9
:1014A00026F84FB1D4E9012138469047206A401C04
:1014B0002062C01C206206E0206AFAE7D4E901211C
:1014C00015F8010B9047761EF8D22046FFF725F855
:1014D000BDE8F0814E414E006E616E00494E4600FF
:1014E000696E66002DE9F047814616468AB0354898
:1014F00078440DC88DE80D0032487844801C03AC58
:101500000DC884E80D0041F69B300844372190FB5C
:10151000F1F290FBF1F5A5F1800501FB12041B3CF3
:1015200002D56442012000E00020DFF898A0804648
:101530000027FA44AAF1BE0A0EE0E0070AD03246BC
:10154000684607EB470101230AEB810101F0E7FB45
:101550008DE8070064107F1C002CEED1194F7F44EA
:10156000AE3F19E0E80715D007EB04100DF1180A9B
:1015700090E80E008AE80E00C068F04201D1981988
:1015800008903246012306A903A801F0C8FB03AB6B
:1015900083E807006D10641C002DE3D14FF00103B8
:1015A00032466946B8F1000F03A802D001F0A2FB51
:1015B00001E001F0B4FBC9E90001C9F808200AB054
:1015C000BDE8F087141C000010B50446AFF300809E
:1015D0002046BDE81040FEF73CBE000000487047C2
:1015E0002800002001491820ABBEFEE726000200BB
:1015F0007047000088B00790069100200590049085
:1016000003900290019000900698C07800F00F00BF
:1016100005900698C078C006002806D5FFE7069812
:101620008178059808430590FFE706980078002820
:101630004BD0FFE707980068019000200390FFE778
:10164000039807283DD8FFE70399012088400290BE
:1016500006980088029908400490049802998842EC
:101660002AD1FFE703988000029002990F2088405A
:10167000009000990198884301900598029900FA1A
:1016800001F10198084301900698C078282806D1F6
:10169000FFE7039901208840079948610BE006980D
:1016A000C078482806D1FFE70399012088400799B0
:1016B0000861FFE7FFE7FFE7FFE7039801300390CA
:1016C000BEE7019807990860FFE706980088B0F523
:1016D000807F50DBFFE7079840680190002003906F
:1016E000FFE70398072842D8FFE7039800F10801B5
:1016F00001208840029006980088029908400490D2
:101700000498029988422DD1FFE703988000029047
:1017100002990F2088400090009901988843019019
:101720000598029900FA01F1019808430190069882
:10173000C078282808D1FFE7039800F108010120AC
:10174000884007994861FFE70698C078482808D183
:10175000FFE7039800F1080101208840079908611C
:10176000FFE7FFE7FFE7039801300390B9E701982F
:1017700007994860FFE708B07047000086B0059001
:101780008DF81310002003900290019000909DF8B6
:1017900017000006002806D5FFE71C20C4F2010050
:1017A0000068019005E00420C4F201000068019087
:1017B000FFE70598C0F303400090BDF814000390C4
:1017C000059800F44010B0F5401F0CD1FFE70198D8
:1017D00020F0706001900421C4F20101086820F03B
:1017E0007060086023E09DF81600C00600280DD543
:1017F000FFE70099032088400290029901988843EE
:101800000190019840F0706001900FE00398059AF4
:101810006FF00F0101EA524100FA01F1019888438B
:101820000190019840F070600190FFE7FFE79DF89C
:10183000130060B1FFE70398059A6FF00F0101EA0A
:10184000524100FA01F1019808430190FFE79DF829
:1018500017000006002806D5FFE701981C21C4F2F6
:101860000101086005E001980421C4F2010108604B
:10187000FFE706B07047000080B584B003900020F9
:101880008DF80B00039860B9FFE740F20000C2F248
:101890000000016844F20040C4F2000000F0E0FBE8
:1018A0001AE040F20000C2F200000090C16844F269
:1018B0000040C4F20000019000F0D2FB01980399AF
:1018C000013100F0CDFB00990198496800F0C8FB98
:1018D00001208DF80B00FFE79DF80B0004B080BDE0
:1018E00080B586B0042001900121009100F0E4F958
:1018F000009908200290FFF741FF019818218DF808
:10190000171003218DF81610ADF8140040F60000F2
:10191000C4F20100039005A90491FFF76BFE019B3F
:10192000029A039804998DF81730ADF81420FFF748
:1019300061FE06B080BD000080B588B04FF4003075
:101940000121039100F09CF94FF4165004900020FF
:101950000090ADF81C000C21ADF81A10ADF818007D
:10196000ADF81600ADF8140044F20040C4F20000D7
:10197000029004A900F050FC0298039A40F225510D
:1019800000F000FC4FF4407000F05CF90099262054
:10199000019000F035F9019800F020F902980399C0
:1019A00000F0B8FB08B080BD80B5FFF799FFFFF7E6
:1019B000C3FF80BD82B0002001900090FFE7009837
:1019C0001F281ED8FFE7009940F29400C2F20000E1
:1019D000084490F80004C00770B9FFE7009940F28E
:1019E0009400C2F200004218012182F8001400990C
:1019F00000EB4110019004E0FFE7009801300090F7
:101A0000DDE7019802B0704785B004900020039094
:101A100002900190049800285BD0FFE704982028EA
:101A200057D8FFE700200290FFE702980499C1F120
:101A3000200188424CD8FFE701208DF803000020E8
:101A40000190FFE701980499884216D2FFE70298B7
:101A50000199014440F29400C2F20000084490F859
:101A60000004C00720B1FFE700208DF8030004E068
:101A7000FFE7019801300190E4E79DF80300C007FB
:101A800008B3FFE700200190FFE70198049988421E
:101A900010D2FFE702980199014440F29400C2F28B
:101AA00000000144012081F80004FFE701980130A3
:101AB0000190EAE7029940F29400C2F2000000EBC4
:101AC0004110039004E0FFE7029801300290ACE778
:101AD000FFE7039805B0704783B002900298F8B111
:101AE000FFE7029840F29401C2F20001401A01900F
:101AF0000198002813D4FFE701984009009000984E
:101B00001F280BD8FFE7009940F29400C2F20000B2
:101B10000144002081F800040290FFE7FFE7FFE79F
:101B200003B0704785B0049003910498A0B3FFE719
:101B3000039888B3FFE7049840F29401C2F20001D1
:101B4000401A02900298002825D4FFE70298400925
:101B5000019001980399084420281BD8FFE7002032
:101B60000090FFE700980399884210D2FFE70198A0
:101B70000099014440F29400C2F2000001440020A8
:101B800081F80004FFE7009801300090EAE70020A8
:101B90000490FFE7FFE7FFE705B0704780B582B02C
:101BA00040F29400C2F2000001904FF48061FEF711
:101BB0000DFC01990020C1F81C04C1F81804C1F8FB
:101BC0001404C1F81004C1F80C04C1F80804C1F8E9
:101BD0000404C1F8000402B080BD000081B08DF89B
:101BE00003009DF9031001F01F02012090404A09F3
:101BF0004EF20011CEF2000141F8220001B0704710
:101C000082B08DF8070000919DF90700B0F1FF3F09
:101C10000CDCFFE7009800019DF8071001F00F01B0
:101C20004EF61452CEF20002885409E000980001EA
:101C30009DF907104EF20042CEF200028854FFE7F1
:101C400002B0704783B00290029800F00700009045
:101C50004EF60C51CEF200010868019001984FF643
:101C6000FF02104001900198009A40EA02200022F1
:101C7000C0F2FA52104301900198086003B0704717
:101C800082B001908DF803109DF8030048B1FFE782
:101C9000019A41F21C01C4F2020108681043086075
:101CA00008E0019A41F21C01C4F202010868904365
:101CB0000860FFE702B0704782B001908DF8031012
:101CC0009DF8030048B1FFE7019A41F21801C4F200
:101CD000020108681043086008E0019A41F2180107
:101CE000C4F20201086890430860FFE702B0704741
:101CF00086B005900020049003900290019041F27C
:101D00000400C4F20200006800F00C000490049883
:101D1000009040B1FFE7009804280BD0FFE700983F
:101D200008280ED047E0059941F20020C0F27A0061
:101D3000086047E0059941F20020C0F27A0008608F
:101D400040E041F20400C4F20200016801F47011A5
:101D50000391006800F4803002900399022000EBA8
:101D600091400390029848B9FFE7039840F60011AC
:101D7000C0F23D014843059908601BE041F20400B0
:101D8000C4F2020000688003002809D5FFE7039829
:101D900040F60011C0F23D0148430599086008E093
:101DA000039841F20021C0F27A0148430599086086
:101DB000FFE7FFE706E0059941F20020C0F27A0054
:101DC0000860FFE741F20400C4F20200016801F07C
:101DD000F0010491049909090491049A43F2241131
:101DE000C0F600018A5C0192059B1A68DDF804C008
:101DF00022FA0CF25A60026802F4E0620492049A39
:101E0000120A0492049A8A5C0192059B5A68DDF8D2
:101E100004C022FA0CF29A60026802F46052049242
:101E2000049AD20A0492049A895C0191059A516835
:101E3000019BD940D160006800F4404004900498B0
:101E4000800B0490049943F22010C0F60000405C1F
:101E500001900599C868019AB0FBF2F0086106B0DC
:101E60007047000080B584B0039000208DF80B000F
:101E7000039860B9FFE740F20000C2F20000016879
:101E800044F20040C4F2000000F0EAF81AE040F228
:101E90000000C2F200000090816844F20040C4F2E9
:101EA0000000019000F0DCF801980399013100F086
:101EB000D7F800990198496800F0D2F801208DF810
:101EC0000B00FFE79DF80B0004B080BD80B500F06B
:101ED00001F880BD84B000200390029041F200011F
:101EE000C4F20201086840F480300860FFE741F264
:101EF0000000C4F20200006800F400300290039871
:101F000001300390FFE702990020019039B9FFE703
:101F10000398B0F5A06018BF01200190FFE7019879
:101F2000C0070028E3D1FFE741F20000C4F202003D
:101F300000688003002803D5FFE70120029002E03B
:101F400000200290FFE70298012851D1FFE742F2FA
:101F50000001C4F20201086840F01000086008683F
:101F600020F003000860086840F00200086041F2B9
:101F70000401C4F202010091086808600868086062
:101F8000086840F480600860086820F47C100860ED
:101F9000086840F4E810086041F20001C4F2020150
:101FA000086840F080700860FFE741F20000C4F26A
:101FB000020000688001002801D4FFE7F5E741F244
:101FC0000401C4F20201086820F0030008600868F8
:101FD00040F002000860FFE741F20400C4F2020092
:101FE000006800F00C00082801D0FFE7F4E700E0EB
:101FF000FFE704B07047000080B541F20002C4F270
:102000000202106840F00100106041F20401C4F2C5
:10201000020108680023CFF6FF031840086010682B
:102020004FF6FF73CFF6F66318401060106820F487
:1020300080201060086820F4FE00086041F208016A
:10204000C4F202014FF41F000860FFF73FFF4EF695
:102050000851CEF200014FF00060086080BD000022
:1020600080B584B00390029101208DF80700002113
:10207000ADF80410ADF80210ADF80010ADF8000096
:10208000029818B1FFE7039820B9FFE700208DF808
:1020900007003AE0FFE70298BDF80410405C98B3EF
:1020A000FFE7FFE70398802100F04AF888B9FFE7CF
:1020B000BDF802000130ADF80200BDF8020040F6A4
:1020C000B931884204D3FFE700208DF8070000E013
:1020D000E8E7BDF8020040F6B931884201D3FFE7D6
:1020E00012E0BDF80400BDF80010884204DDFFE7EF
:1020F00000208DF8070007E003980299BDF804203E
:10210000895C00F037F9C6E7FFE79DF8070004B0E7
:1021100080BD000082B001908DF803109DF803008F
:1021200030B1FFE70199888940F40050888105E0CB
:102130000199888920F400508881FFE702B0704738
:1021400082B00190ADF8021000208DF80100BDF8BA
:102150000200B0F5007F01D1FFE7FFE7019800889A
:10216000BDF802100840000420B1FFE701208DF8FF
:10217000010003E000208DF80100FFE79DF8010059
:1021800002B0704786B00590ADF812108DF811209E
:1021900000200390029001900090BDF8120040F6DC
:1021A0006A11884201D1FFE7FFE7059800909DF88A
:1021B000120040090390BDF8120000F01F000290C9
:1021C00002990120884001900398012804D1FFE77B
:1021D00000980C3000900CE00398022804D1FFE72F
:1021E00000981030009003E0009814300090FFE752
:1021F000FFE79DF8110030B1FFE7019A00990868E8
:102200001043086005E0019A00990868904308604F
:10221000FFE706B07047000080B58CB00B900A91C4
:102220000020099008900790069005900A988089F0
:1022300008B1FFE7FFE70B9805900B98008A09901B
:1022400009984CF6FF71084009900A98C1880998CE
:102250000843099009980B9908820B988089099086
:1022600009984EF6F311084009900A9988880A895E
:1022700010434989014309980843099009980B992B
:1022800088810B98808A099009984FF6FF41084091
:1022900009900A98818909980843099009980B992F
:1022A00088826846FFF724FD059843F60001C4F2D2
:1022B0000101884203D1FFE70398089002E00298E9
:1022C0000890FFE70B988089000400280AD5FFE7F3
:1022D0000898192148430A9909684900B0FBF1F0B0
:1022E000079009E00898192148430A99096889006C
:1022F000B0FBF1F00790FFE7079848F21F51C5F2D5
:10230000EB11A0FB01016FF00F0000EA51000990F2
:10231000079A09980009642100FB112006900B9888
:1023200080890004002810D5FFE70699322000EBD1
:10233000C10048F21F51C5F2EB11A0FB0110C0F320
:1023400042110998084309900FE00699322000EBEA
:10235000011048F21F51C5F2EB11A0FB0110C0F3B0
:102360004311099808430990FFE709980B990881E0
:102370000CB080BD82B00190ADF80210BDF8020033
:102380006FF35F200199888002B0704780B582B0FA
:10239000019000208DF80300019820BBFFE7012089
:1023A0008DF803009DF8030003280FDCFFE79DF87C
:1023B000031040F21400C2F2000050F8211044F261
:1023C0000040C4F20000FFF74BFE0BE040F21400A7
:1023D000C2F20000416844F20040C4F20000FFF77E
:1023E0003FFEFFE760E00198007802280BDCFFE782
:1023F0000198027843F23411C0F6000101EBC201EA
:10240000496888474FE001980078FE2826DCFFE7FE
:1024100001980078FB388DF803009DF8030003282D
:102420000FDCFFE79DF8031040F21400C2F2000039
:1024300050F8211044F20040C4F20000FFF710FEF3
:102440000BE040F21400C2F20000416844F2004088
:10245000C4F20000FFF704FEFFE723E001208DF83F
:1024600003009DF8030003280FDCFFE79DF803102D
:1024700040F21400C2F2000050F8211044F2004073
:10248000C4F20000FFF7ECFD0BE040F21400C2F2D2
:102490000000416844F20040C4F20000FFF7E0FD94
:1024A000FFE7FFE7FFE7FFE702B080BD80B584B03C
:1024B00000900391FA208DF80B000020019020205D
:1024C00001900398D8B3FFE7009903984A1C019B39
:1024D00043F2FE11C0F6000100F038F88DF80B0051
:1024E0009DF80B00FA2824D1FFE70098013000F096
:1024F0008FF80146009801700078FA2818DCFFE791
:102500000099039801F12102019B43F20221C0F6D8
:10251000000100F01BF88DF80B009DF80B00FA2865
:1025200005D0FFE700999DF80B000870FFE7FFE773
:1025300004E000999DF80B000870FFE703E00099A4
:10254000FC200870FFE704B080BD000080B58AB0B1
:102550000890079106920593FA208DF81300002049
:102560000190089848B1FFE7079830B1FFE7069857
:1025700018B1FFE7059820B9FFE7FC208DF8270088
:1025800041E008980799012200F082F8039008982A
:102590000799002200F07CF80290039850B3FFE7FF
:1025A000029838B3FFE702980399884222D9FFE7DF
:1025B0000798FDF7A7FE039908440230039002989C
:1025C0000399401A019001980599884204D3FFE7C6
:1025D000FD208DF813000CE006980399019AFDF791
:1025E00017FF0699019A00208854FA208DF81300ED
:1025F000FFE703E0FD208DF81300FFE79DF81300CF
:102600008DF82700FFE79DF827000AB080BD000085
:1026100080B582B0019000208DF803008DF8020093
:10262000019860B3FFE7FFE79DF8021043F2341012
:10263000C0F6000050F83100B8B1FFE79DF8021075
:1026400043F23410C0F6000050F831000199FDF754
:102650000BFF20B9FFE701208DF8030005E09DF88E
:10266000020001308DF80200DEE79DF80300C0078C
:1026700020B9FFE7FB208DF80200FFE703E0FC2014
:102680008DF80200FFE79DF8020002B080BD000057
:1026900080B586B0049003918DF80B200020019046
:1026A000049840B1FFE7039828B1FFE79DF80B00BD
:1026B000022803DBFFE7002005902BE0FFF77AF903
:1026C0000190019818B9FFE70020059022E09DF8DD
:1026D0000B0050B9FFE70198039B43F2F912C0F6D3
:1026E00000022021FDF7DCFD09E00198039B43F285
:1026F000F312C0F600022021FDF7D2FDFFE7049897
:102700000199FDF7EDFD00900198FFF7E5F90098BC
:102710000590FFE7059806B080BD000080B596B033
:1027200000201590FFF740F9FFF738FAFFE740F275
:102730008C00C2F2000000F037F898B3FFE70520E4
:10274000FFF762F9014640F28800C2F20000016022
:10275000006800B3FFE740F28800C2F20000039077
:102760000068019040F29000C2F2000001680DF193
:1027700013000290FFF79AFE019802994122FDF79B
:10278000E0FD03980068FFF701FE0398006805214B
:10279000FFF7C8F9FFE740F28C00C2F2000000F03A
:1027A0001FF8FFE7C3E7000082B0019000208DF81A
:1027B0000300019848B1FFE7019800780138B0FAAA
:1027C00080F040098DF8030003E000208DF803003D
:1027D000FFE79DF8030000F0010002B07047000021
:1027E00081B0009000980078012804D1FFE700999B
:1027F00000200870FFE701B070475FEA400C08BF97
:1028000091F0000F4FEA8C234FEAC12243EA515165
:102810004FEA1C5018BF00F5F0404FEA300018BFD7
:1028200041F000415FEA6C5C00F02980BCF1FF3FA1
:1028300008BF40F080407047130C06BF12044FF0F1
:10284000100C4FF0000C130E04BF12020CF1080C18
:10285000130F04BF12010CF1040C930F04BF92007C
:102860000CF1020CD30F04BF52000CF1010C114605
:102870004FF00002A0F11F00A0EB0C00704711F018
:10288000004F08BF704731F000413FF4D5AF0B0C4B
:1028900006BF09044FF0100C4FF0000C0B0E04BFE4
:1028A00009020CF1080C0B0F04BF09010CF1040C18
:1028B0008B0F04BF89000CF1020CCB0F04BF490041
:1028C0000CF1010CCCF1200322FA03F341EA0301DD
:1028D00002FA0CF2A0EB0C0000F1010070470000BE
:1028E00023F07F4720F07F4C80EA030000F0004097
:1028F000ACEB070303F57C5303F1FF032DE980499B
:1029000009B44FEA144324EA03484FEA154B25EA79
:102910000B4E0FF2042606EB13273E7803FB0667E7
:10292000C7F5000707FB06F64FEAD64606F1020692
:102930004FEA543707FB066CCCF1005C4FEA1C47AA
:102940002CEA074C0CFB06F507FB06F404EB1546D6
:102950004FEA961649085FEA320234BF00204FF072
:1029600000404FEAD13706FB07FC4FEA1C4C0CFB3A
:102970000BF7D21B03FB0CF761EB07010CFB0EF707
:10298000B0EB074072EB17420CFB08F734BFA2EB29
:102990000742B2EB074261EB17414FEA0C444FEAA2
:1029A000910706FB07FC4FEA1C4C0CFB0BF7B0EB46
:1029B000C74072EB573203FB0CF734BFA2EBC742A0
:1029C000B2EBC74261EB57310CFB0EF7B0EBC7001F
:1029D00072EB57720CFB08F734BFA2EBC702B2EBE5
:1029E000C70261EB57714FEA816141EA92114FEAE8
:1029F000826242EA90124FEA806004EBCC04039FAB
:102A00004FEAD13706FB07FC4FEA1C4C0CFB0BF7D7
:102A1000D21B03FB0CF761EB07010CFB0EF7B0EBCD
:102A2000074072EB17420CFB08F734BFA2EB0742DA
:102A3000B2EB074261EB17414FEA8C5504EB9C2443
:102A40004FEA910706FB07FC4FEA1C4C0CFB0BF707
:102A5000B0EBC74072EB573203FB0CF734BFA2EB6D
:102A6000C742B2EBC74261EB57310CFB0EF7B0EB3C
:102A7000C70072EB57720CFB08F734BFA2EBC7021A
:102A8000B2EBC70261EB57714FEA816141EA9211E3
:102A90004FEA826242EA90124FEA806015EB4C25C1
:102AA00044F100044FEAD13706FB07FC4FEA1C4C07
:102AB0000CFB0BF7D21B03FB0CF761EB07010CFBC4
:102AC0000EF7B0EB074072EB17420CFB08F734BF70
:102AD000A2EB0742B2EB074261EB17414FEA8131AB
:102AE00041EA92414FEA823242EA90424FEA803014
:102AF0004FEA0C7615EB1C1544F1000448EA034339
:102B00004EEA0B484FF0000EB2EB080C71EB0307D6
:102B100024BF624639464EEB0E0E4FF0000B0018F4
:102B2000524149414BEB0B0BB2EB080C71EB030725
:102B30007BF1000B24BF624639464EEB0E0E4FF080
:102B4000000B0018524149414BEB0B0BB2EB080C48
:102B500071EB03077BF1000B24BF624639464EEB55
:102B60000E0E51EA020718BF46F0010616EB0E766C
:102B700055F1000254F1000103D5BDE88901BDE81B
:102B80000088BDE88901BDE80048B619524141EB13
:102B90000101A3F10103704780807F7E7D7C7B7AF9
:102BA0007978777676757473727171706F6E6E6DF9
:102BB0006C6C6B6A6A69686867666665646463639F
:102BC00062616160605F5F5E5E5D5D5C5C5B5B5A25
:102BD0005A59595858575756565555555454535392
:102BE00052525251515050504F4F4F4E4E4D4D4DED
:102BF0004C4C4C4B4B4B4A4A4A4949494848484738
:102C00004747474646464545454444444443434375
:102C100043424242424141419C46002B30D477001E
:102C20002BD04FEA37071CB503B44FF010004FF01C
:102C30001001BAF1000F06D0BCF1000FDCBF40F06C
:102C4000080040F008014FF000000FBCBDE8104044
:102C50000BF1010BBBF1010F08BF5FEA170722BFA1
:102C600012F1010211F101014FF0004143F10003A3
:102C700000F0004043EA00007047F9D35708D0E75E
:102C800046EA06464FEA164613F1400F1FDD13F1E0
:102C9000200FDFBF16430A46002120335B42BED01F
:102CA000C3F1200746EA06464FEA164602FA07F73E
:102CB00046EA070622FA03F2C3F1200701FA07F7F2
:102CC00042EA070221FA03F14FF00003A7E746EAC0
:102CD000020646EA06464FEA164646EA0106BCBF29
:102CE00046EA0646360C4FF000034FF000024FF064
:102CF000000194E72DE9804C70B49A46934691E820
:102D0000380007C831EA400C48BF34EA430C03D509
:102D1000FFF7E6FDFFF780FFF0BCBDE8008C2DE972
:102D2000804C70B49A46934691E8380007C810F07A
:102D3000804F08BF13F0804F03D100F005F8FFF774
:102D40006BFFF0BCBDE8008C20F07F4723F07F4C88
:102D500080EA030000F0004007EB0C03A3F57C536E
:102D6000A3F1FE0392F0000F00F0B38095F0000F86
:102D700000F077802DE901494FEA114021EA00482F
:102D80004FEA144624EA064700FB06FC08FB06F659
:102D900007FB08F818EB06484CEB164C00FB07F74E
:102DA00018EB07484CEB17404FEA124B22EA0B4E48
:102DB0004FEA154625EA06470BFB06FC0EFB06F616
:102DC00007FB0EFE1EEB064E4CEB164C0BFB07F7FB
:102DD0001EEB074E4CEB174B18EB0B0840F10000B5
:102DE00018EB0E0B58EB000840F100008F1A4FF063
:102DF00000014FF000063CBFC943661B14BFB5EB92
:102E0000040C00213CBFC943F61B4FEA174427EAD4
:102E100004454FEA1C472CEA074C04FB076205FBFC
:102E200007F70CFB05F616EB074642EB174204FBCF
:102E30000CFC16EB0C4642EB1C421BEB060658EB57
:102E4000020241414EEA8E0E46EA9E0601D5BDE8D9
:102E50000189B619524141EB0101A3F10103BDE81B
:102E600001894FEA144524EA05464FEA114721EA51
:102E7000074C05FB07F406FB07F70CFB06F111EB0B
:102E8000074144EB174405FB0CFC11EB0C4144EBF0
:102E90001C444FEA124722EA074C05FB07F206FBE7
:102EA00007F70CFB06F616EB074642EB174205FB4D
:102EB0000CFC16EB0C4642EB1C456A1854F1000161
:102EC00048BF7047B619524141EB0101A3F101031C
:102ED000704795F0000F37D04FEA114221EA0246C1
:102EE0004FEA144724EA074C02FB07F106FB07F7F9
:102EF0000CFB06F414EB074441EB174102FB0CFCFE
:102F000014EB0C4441EB1C414FEA154725EA074CF2
:102F100002FB07F506FB07F70CFB06F616EB074668
:102F200045EB174502FB0CFC16EB0C4645EB1C422F
:102F3000121951F1000148BF7047B619524141EBD7
:102F40000101A3F1010370474FEA144524EA054645
:102F50004FEA114721EA074C05FB07F106FB07F78B
:102F60000CFB06F212EB074241EB174105FB0CFC90
:102F700012EB0C4251EB1C414FF0000648BF70476A
:102F8000921841EB0101A3F101037047490050EA97
:102F9000C12018BF04204A0D18BF40F0010040F2C4
:102FA000FF72B2EB515F08BF40F00200012808BF7A
:102FB0000520704730380A2801D2012070470020D0
:102FC0007047000010B500290AD00878002807D003
:102FD00005487844FDF748FA002801D0002010BDCC
:102FE0000248784410BD00006A020000620200003E
:102FF00010B500290AD00878002807D00548784481
:10300000FDF732FA002801D0002010BD02487844B4
:1030100010BD00005A02000052020000FDF7EBBE96
:10302000FEF720B80000000000000000303132330D
:1030300034353637383941424344454640305800EC
:10304000303132333435363738396162636465661E
:10305000403078000400000800000000000000027A
:1030600000010000103031323334353637383961E1
:1030700062636465667870003031323334353637D8
:103080003839414243444546585000000240000050
:10309000000000A00000000005400000000000C883
:1030A000000000000C4000000000409C00000000F8
:1030B000194000000020BCBE0000000034400000A9
:1030C000BFC91B8E00000004B5400000504BCFD09C
:1030D0006607E2CF010000006C4100003E8251AA69
:1030E000DFEEA73401000000D9420000DCB5A0E209
:1030F0003A301F97FFFFFFFFB4450000FD25A0C831
:10310000E9A3C14FFFFFFFFFFF3F00000000008069
:1031100000000000FF3F00000000008000000000F1
:103120000204060800000000010203040102030477
:103130000607080908320008651E0008103200085A
:10314000791800080000000000000000436F6D6D5A
:10315000616E6420726563656976656420616E6482
:103160002070726F6365737365642E0A0045727216
:103170006F723A20436F6D6D616E64436F6E74655C
:103180006E7420706F696E746572206973206E753D
:103190006C6C2E0A000A42616420584D4C0A000AE9
:1031A0004E6F20636F6D6D616E6420776173206672
:1031B0006F756E640A000A496E76616C6964206FEF
:1031C0007065726174696F6E0A000A5365636F6E91
:1031D0006420436F6D6D616E643A2025730A000AA6
:1031E000466972737420436F6D6D616E643A202579
:1031F000730A003C2F25733E003C25733E00434D6F
:103200004400504152414D004C696768744F6E0054
:103210004765744865617465720000006833000892
:103220000000002028000000500100089033000832
:1032300028000020900A0000700100081C00000017
:1032400043000000F8FFFFFF0C0000000E0000002C
:103250000F0000002E0000001001000043000000DD
:10326000F8FFFFFF004040404040404040404141A7
:10327000414141404040404040404040404040404B
:1032800040404040400502020202020202020202E5
:1032900002020202022020202020202020202002E2
:1032A0000202020202029090909090901010101072
:1032B000101010101010101010101010101010100E
:1032C00002020202020288888888888808080808A2
:1032D000080808080808080808080808080808086E
:1032E0000202020240000000000000000000000096
:1032F00000000000000000000000000000000000CE
:1033000000000000000000000000000000000000BD
:1033100000000000000000000000000000000000AD
:10332000000000000000000000000000000000009D
:10333000000000000000000000000000000000008D
:10334000000000000000000000000000000000007D
:10335000000000000000000000000000000000006D
:1033600000000000000000006D3100084C31000832
:10337000DF310008CA310008000000009F3100085A
:10338000B631000895310008000000000000000080
:04000005080000ED02
:00000001FF
